S00F000052746F735F45782E7372656351
S11300000C9472000C948F000C948F000C948F004D
S11300100C948F000C948F000C948F000C94590452
S11300200C948F000C948F000C948F000C948F0010
S11300300C948F000C948F000C948F000C948F0000
S11300400C948F000C948F000C948F000C948F00F0
S11300500C948F00B900D200EB0004011C011C01B8
S11300601C011C011C011C011C011C011C011C01A4
S11300701C011C011C011C011C011C011C011C0194
S11300801C011C011C011C011C011C011C011C0184
S11300901C011C01B900D200EB000401280130014D
S11300A03801400147014701470147014701470122
S11300B047014701470147014701470147014701FC
S11300C047014701470147014701470147014701EC
S11300D04701470147014701470147012801300112
S11300E03801400111241FBECFE5D8E0DEBFCDBFEB
S11300F010E0A0E6B0E0E2EFF5E102C005900D9259
S1130100A237B107D9F726E0A2E7B0E001C01D92FB
S1130110A73BB207E1F70E94DC020C94F70A0C94A7
S1130120000041E064E081E40E94AD0041E065E04C
S113013081E40E94AD0041E066E081E40E94AD00EC
S113014041E067E081E40E94AD000895682F629564
S1130150607F81E40E941D01089590E0FC01E15458
S1130160F109E432F10508F067C0E65DFF4F0C9435
S1130170E80A413059F42AB381E090E002C0880FC4
S1130180991F6A95E2F7822B8ABB08952AB381E00E
S113019090E002C0880F991F6A95E2F78095822348
S11301A08ABB0895413059F427B381E090E002C03E
S11301B0880F991F6A95E2F7822B87BB089527B3AE
S11301C081E090E002C0880F991F6A95E2F780955C
S11301D0822387BB0895413059F424B381E090E031
S11301E002C0880F991F6A95E2F7822B84BB089599
S11301F024B381E090E002C0880F991F6A95E2F76A
S11302008095822384BB0895413059F421B381E061
S113021090E002C0880F991F6A95E2F7822B81BB98
S1130220089521B381E090E002C0880F991F6A9578
S1130230E2F78095822381BB089590E0FC01E154AC
S1130240F109E432F10518F5E25BFF4F0C94E80A7A
S11302508BB38F708BBB8BB3607F682B6BBB0895A4
S113026088B38F7088BB88B3607F682B68BB0895A0
S113027085B38F7085BB85B3607F682B65BB08959C
S113028082B38F7082BB82B3607F682B62BB089598
S11302900F931F93CF93DF93EC010E948C088091FE
S11302A0720081111DC0E7E7F0E08CE790E09183D4
S11302B0808313821282E3E7F0E08BED95E0938371
S11302C0828311821082ABE7B0E014969C938E93E4
S11302D013971296FC93EE93119781E0809372002A
S11302E0209709F45FC09E012C5F3F4F2396CA3DBF
S11302F0D54008F05AC0E0917700F0917800A7E764
S1130300B0E002C0DF01FC01828193818217930770
S113031020F4808191810097A9F7C0E0E337FC07BE
S113032009F446C0CD91DC9111978E010C5F1F4FEB
S1130330808191818D939C9382819381821B930B05
S11303408930910510F1BF01620F731FDB01139611
S11303509C938E9312973383228312964D915C91D2
S1130360139787E790E001C0CD01EC01A881B98122
S113037012962D913C91139724173507A8F3EB019E
S1130380B983A883DC016D937C9380916000909184
S1130390610022813381821B930B909361008093CF
S11303A0600008C000E010E005C000E010E002C0FA
S11303B000E010E00E945109C801DF91CF911F9124
S11303C00F9108950F931F93CF93DF93009741F1FB
S11303D0EC018C01045011090E948C08F80142813F
S11303E05381A7E7B0E001C0DF01ED91FC911197C3
S11303F02281338124173507B8F32497F983E883DE
S11304000D931C9320916000309161008A819B813F
S1130410820F931F90936100809360000E945109A2
S1130420DF91CF911F910F910895FC010396928360
S113043081832FEF3FEF34832383968385839087D3
S1130440878310820895FC01118610860895CF9346
S1130450DF939C01FB01DC011196CD91DC91129795
S1130460D383C2838C819D81958384838C819D8178
S1130470DC0113967C936E9312977D836C83318792
S11304802087F90180818F5F8083DF91CF91089568
S1130490CF93DF93EB01488159814F3F2FEF5207F0
S11304A021F4FC01A781B0850DC0DC01139601C0C5
S11304B0DF011296ED91FC9113972081318142174F
S11304C05307B0F71296ED91FC911397FB83EA83DF
S11304D0D583C483BD83AC831396DC93CE931297E8
S11304E099878887FC0120812F5F2083DF91CF913A
S11304F00895CF93DF93FC01A085B185C281D38198
S1130500848195819D838C83C481D58182819381EB
S11305109B838A8311968D919C911297E817F90712
S113052031F48481958112969C938E931197118650
S113053010868C9181508C938C91DF91CF9108958A
S1130540CF93DF931F92CDB7DEB719824FEF5FEFE2
S1130550BE016F5F7F4F8091B5069091B6060E94F1
S1130560210689810E94A600F1CFCF93DF931F92C9
S1130570CDB7DEB740E063E084E60E94AD001982A7
S1130580839B09C086E990E00E94D409839B03C041
S113059089818F5F898389818A3009F4198220E0F7
S11305A04FEF5FEFBE016F5F7F4F8091B506909173
S11305B0B6060E948005E4CF0E94910040E061E00D
S11305C081E00E945D059093B6068093B506892B61
S11305D0C9F0E12CF12C02E020E030E04CE251E0E3
S11305E062E670E080EA92E00E94520720E030E088
S11305F04CE251E067E670E085EB92E00E9452071E
S11306000E946208FFCF31E1FC013083319722E27E
S113061020833197A3E3A08331976083319770835C
S113062031971082319760E8608331971082319757
S113063062E06083319763E06083319764E06083B4
S1130640319765E06083319766E06083319767E0B6
S11306506083319768E06083319769E06083319704
S113066060E1608331973083319732E13083319791
S113067033E13083319734E13083319735E130838E
S1130680319736E13083319737E13083319738E160
S11306903083319739E13083319730E230833197B9
S11306A031E2308331972083319723E220833197DD
S11306B0408331975083319726E22083319727E294
S11306C02083319728E22083319729E220833197D0
S11306D020E32083319721E32083869708951BBC70
S11306E089EF8ABD8BE08EBD89B7806189BFA091F7
S11306F0B306B091B406CD91CDBFDD91DEBFFF91BD
S1130700EF91DF91CF91BF91AF919F918F917F91A5
S11307106F915F914F913F912F911F910F91FF9096
S1130720EF90DF90CF90BF90AF909F908F907F908D
S11307306F905F904F903F902F901F900F900FBE3F
S11307400F90089581E008950F920FB6F8940F92D8
S11307501F9211242F923F924F925F926F927F9239
S11307608F929F92AF92BF92CF92DF92EF92FF92BD
S11307700F931F932F933F934F935F936F937F93A5
S11307808F939F93AF93BF93CF93DF93EF93FF9395
S1130790A091B306B091B4060DB60D920EB60D92AB
S11307A00E94E809A091B306B091B406CD91CDBFE3
S11307B0DD91DEBFFF91EF91DF91CF91BF91AF91BA
S11307C09F918F917F916F915F914F913F912F9165
S11307D01F910F91FF90EF90DF90CF90BF90AF905B
S11307E09F908F907F906F905F904F903F902F904D
S11307F01F900F900FBE0F9008950F920FB6F894AC
S11308000F921F9211242F923F924F925F926F92F8
S11308107F928F929F92AF92BF92CF92DF92EF928C
S1130820FF920F931F932F933F934F935F936F9375
S11308307F938F939F93AF93BF93CF93DF93EF9364
S1130840FF93A091B306B091B4060DB60D920EB607
S11308500D920E94920881110E94E809A091B306AA
S1130860B091B406CD91CDBFDD91DEBFFF91EF9184
S1130870DF91CF91BF91AF919F918F917F916F91B4
S11308805F914F913F912F911F910F91FF90EF90A6
S1130890DF90CF90BF90AF909F908F907F906F909C
S11308A05F904F903F902F901F900F900FBE0F902E
S11308B008950E94FD0318950FB6F8940F92FC0159
S11308C0928D0F900FBE81E0911180E008950F93F7
S11308D01F93CF93DF93EC01042F1A8D4C8D442387
S11308E0B9F1011116C050E08A819B810E94EE0A81
S11308F02C8D8A819B81820F911D9B838A832C81FD
S11309003D818217930720F1888199819B838A8393
S11309101FC050E08E819F810E94EE0A8C8D90E072
S11309209195819591092E813F81280F391F3F832D
S11309302E83488159812417350730F42C813D8159
S1130940820F931F9F838E83023011F41111115073
S11309501F5F1A8F80E0DF91CF911F910F9108954F
S1130960FC01448D4423A9F050E026813781240FF3
S1130970351F37832683848195812817390720F012
S11309808081918197838683CB01668177810E94E0
S1130990EE0A0895EF92FF920F931F93CF938C0169
S11309A00FB6F8940F92FC01C68D1C16ACF4818925
S11309B0811106C011C0F8018189811105C00CC0E4
S11309C07801F1E1EF0EF11CC7010E94600A811168
S11309D00E94E40AC15079F78FEFF801868F0F90D7
S11309E00FBE0FB6F8940F92C58D1C16ACF480851B
S11309F0811106C011C0F8018085811105C00CC0A9
S1130A007801F8E0EF0EF11CC7010E94600A811121
S1130A100E94E40AC15079F78FEFF801858F0F9097
S1130A200FBECF911F910F91FF90EF900895CF9338
S1130A30DF93EC010FB6F8940F92E881F9818B8D66
S1130A402C8D90E030E0829FA001839F500D929FF7
S1130A50500D11244E0F5F1F5D834C831A8EFB8350
S1130A60EA830197829FA001839F500D929F500DAE
S1130A701124CF01840F951F9F838E838FEF8D8F59
S1130A808E8F61110CC08885882389F0CE01089669
S1130A900E94600A882359F00E94A40308C0CE0172
S1130AA008960E941502CE0141960E9415020F90ED
S1130AB00FBE81E0DF91CF9108950F931F93CF93E1
S1130AC0DF93082F162F869FC00111244F960E9492
S1130AD04801EC01009771F0111103C099838883D8
S1130AE003C04F96998388830B8F1C8F61E0CE01DE
S1130AF00E941705CE01DF91CF911F910F910895A8
S1130B009F92AF92BF92CF92DF92EF92FF920F9398
S1130B101F93CF93DF9300D000D01F92CDB7DEB7E1
S1130B208C016B015D834C83A22EB12C9924939488
S1130B307C0188E0E80EF11C0FB6F8940F92F801DE
S1130B40928D838D981718F0F2E0AF1219C04A2DD8
S1130B50B601C8010E946704F8019189992349F0FC
S1130B60C80141960E94600A882331F00E94A403C0
S1130B7003C081110E94A4030F900FBE81E050C0F6
S1130B808C819D81892B21F40F900FBE80E048C099
S1130B90B11005C0CE0101960E94A80AB92C0F908D
S1130BA00FBE0E948C080FB6F8940F92F801858D41
S1130BB08F3F09F4158EF801868D8F3F09F4168E48
S1130BC00F900FBEBE016C5F7F4FCE0101960E9455
S1130BD0B30A81111FC00FB6F8940F92F801928DD9
S1130BE00F900FBE838D98130FC06C817D81C70158
S1130BF00E944E0AC8010E94CA040E945109811130
S1130C009BCF0E94A40398CFC8010E94CA040E94EB
S1130C10510992CFC8010E94CA040E94510980E080
S1130C200F900F900F900F900F90DF91CF911F9125
S1130C300F91FF90EF90DF90CF90BF90AF909F9077
S1130C4008959F92AF92BF92CF92DF92EF92FF925C
S1130C500F931F93CF93DF9300D000D01F92CDB793
S1130C60DEB78C015B015D834C83E12C9924939462
S1130C706C0181E1C80ED11C0FB6F8940F92F801F3
S1130C80F28CFF20A9F0B501C8010E94B004FA94C7
S1130C90F801F28E8085882339F0C80108960E94F5
S1130CA0600A81110E94A4030F900FBE81E051C01D
S1130CB08C819D81892B21F40F900FBE80E049C067
S1130CC0E11005C0CE0101960E94A80AE92C0F90FC
S1130CD00FBE0E948C080FB6F8940F92F801858D10
S1130CE08F3F09F4158EF801868D8F3F09F4168E17
S1130CF00F900FBEBE016C5F7F4FCE0101960E9424
S1130D00B30A81111AC0C8010E945C04882379F0D7
S1130D106C817D81C6010E944E0AC8010E94CA04EA
S1130D200E9451098111A8CF0E94A403A5CFC80134
S1130D300E94CA040E9451099FCFC8010E94CA049C
S1130D400E945109C8010E945C04882309F494CFCD
S1130D5080E00F900F900F900F900F90DF91CF9144
S1130D601F910F91FF90EF90DF90CF90BF90AF90C5
S1130D709F900895E0917B06F0917C06808181111B
S1130D8007C08FEF9FEF90935B0680935A060895F8
S1130D90E0917B06F0917C060580F681E02D808150
S1130DA0918190935B0680935A06089507E616E0B6
S1130DB00F2EFFE8EF2EF6E0FF2EF02D8091660651
S1130DC0882329F10FB6F8940F92D8011596ED9166
S1130DD0FC911697C681D781CE0102960E947902B2
S1130DE080916506815080936506809166068150E6
S1130DF0809366060F900FBE8F89988D0E94E20142
S1130E00CE010E94E201809166068111DBCFF701D9
S1130E108081823098F20E94A403D0CF0F931F9355
S1130E20CF93DF93EC0100916306109164068091E7
S1130E30B3069091B40602960E947902C00FD11FA6
S1130E40E091B306F091B406D383C283C017D107EF
S1130E5068F46091B3067091B4068091790690911C
S1130E607A066E5F7F4F0E94480217C06091B306F6
S1130E707091B40680917B0690917C066E5F7F4FE3
S1130E800E94480280915A0690915B06C817D907C0
S1130E9020F4D0935B06C0935A06DF91CF911F9143
S1130EA00F9108954F925F926F927F928F929F92CB
S1130EB0AF92BF92CF92DF92EF92FF920F93CF93B4
S1130EC0DF934C016B015A012901CA010E944801B8
S1130ED03C01892B09F4E5C086E290E00E944801B8
S1130EE0EC01892B59F0788E6F8A81E0A81AB10839
S1130EF0A60CB71CC114D10429F420C0C3010E945C
S1130F00E201CFC0D6018C91898F8C918823A1F006
S1130F10AE01465E5F4FF6013196B8E0CB0ED11CB0
S1130F20CF012191DA012D93AD01DC018C9188234D
S1130F3019F0EC15FD05A1F718A201C0198E0430B3
S1130F4008F003E00E8B6E01B2E0CB0ED11CC6019B
S1130F500E942302CE010C960E942302D987C887DF
S1130F6084E090E0801B91099D878C87DB8BCA8B82
S1130F7084E0FE01B196DF011D928A95E9F71DA276
S1130F80A201B401C5010E94030399838883E1147B
S1130F90F10419F0F701D183C0830FB6F8940F92CE
S1130FA0809165068F5F809365068091B30690916A
S1130FB0B406892BA9F5D093B406C093B3068091E7
S1130FC065068130E9F58FE896E00E94150288E90C
S1130FD096E00E94150281EA96E00E9415028AEAD0
S1130FE096E00E94150286E896E00E9415028DE7BD
S1130FF096E00E94150280E796E00E94150287E6BB
S113100096E00E94150286E896E090937C06809311
S11310107B068DE796E090937A068093790610C05C
S11310208091610681110CC0E091B306F091B40681
S113103096898E89891720F0D093B406C093B3069D
S113104080915C068F5F80935C068E899091620626
S1131050981710F48093620690E09C01220F331FCE
S1131060220F331F220F331F820F931FB6018157A4
S1131070994F0E9427020F900FBE8091610688232A
S113108061F0E091B306F091B40696898E899817C1
S113109030F40E94A40381E005C081E003C081E034
S11310A001C08FEFDF91CF910F91FF90EF90DF9010
S11310B0CF90BF90AF909F908F907F906F905F90F4
S11310C04F900895EF92FF920F930F2EF8E5EF2EB5
S11310D0F6E0FF2EF02D00E020E030E045E550E0A2
S11310E06CE670E086ED96E00E945207813081F450
S11310F0F8948FEF9FEF90935B0680935A0681E0FC
S11311008093610610926406109263060E946F0336
S11311100F91FF90EF900895809157068F5F809311
S113112057060895CF92DF92EF92FF920F931F9389
S1131130CF93DF938091570681119FC0E09063069F
S1131140F09064068FEFE81AF80AF0926406E092D1
S11311506306E114F104B9F480917B0690917C0656
S11311602091790630917A0630937C0620937B0691
S113117090937A068093790680915D068F5F8093C1
S11311805D060E94BA0680915A0690915B06E816A5
S1131190F90610F4D12C53C0D12CCC24C394E09183
S11311A07B06F0917C068081811107C08FEF9FEF51
S11311B090935B0680935A0642C0E0917B06F091BF
S11311C07C060580F681E02DC681D7818A819B81CA
S11311D0E816F90628F490935B0680935A062FC00C
S11311E08E010E5F1F4FC8010E9479028C899D8970
S11311F0892B21F0CE010C960E9479028E89909160
S11312006206981710F48093620690E09C01220F06
S1131210331F220F331F220F331F820F931FB80176
S11312208157994F0E942702E091B306F091B406CA
S11312309E898689981708F4B2CFDC2CB0CFE09150
S1131240B306F091B406868990E0FC01EE0FFF1F0F
S1131250EE0FFF1FEE0FFF1F8E0F9F1FFC01E157C4
S1131260F94F8081823010F0DD24D39480915E06A2
S1131270882369F0DD24D3940AC080915F0690919D
S1131280600601969093600680935F06D12C8D2DA5
S1131290DF91CF911F910F91FF90EF90DF90CF904E
S11312A00895DF92EF92FF920F931F93CF93DF93F2
S11312B00FB6F8940F928091570681508093570689
S11312C080915706811163C080916506811133C0F6
S11312D061C0D7011596ED91FC911697C681D7810F
S11312E0CE010C960E9479028E010E5F1F4FC80139
S11312F00E9479028E8990916206981710F4809367
S1131300620690E09C01220F331F220F331F220F2D
S1131310331F820F931FB8018157994F0E942702F0
S1131320E091B306F091B4069E898689981768F017
S1131330D0925E060AC0C0E0D0E00F2EF0E7EF2E98
S1131340F6E0FF2EF02DDD24D394F7018081811186
S1131350C0CFCD2B11F00E94BA06C0915F06D09188
S11313606006209761F011E00E94920881111093A9
S11313705E062197C9F71092600610925F0680916D
S11313805E06882331F00E94A40381E003C080E05C
S113139001C080E00F900FBEDF91CF911F910F919C
S11313A0FF90EF90DF900895CF93DF93EC01892BAA
S11313B051F00E948C0860E0CE010E940E070E944A
S11313C05109811102C00E94A403DF91CF910895B5
S11313D080915706882321F081E080935E0608956A
S11313E010925E0620916206822F90E0FC01EE0FBF
S11313F0FF1FEE0FFF1FEE0FFF1FE80FF91FE1574E
S1131400F94F3081311111C02150822F90E0FC013D
S1131410EE0FFF1FEE0FFF1FEE0FFF1FE80FF91F68
S1131420E157F94F3081332379F3AC01440F551F51
S1131430440F551F440F551F480F591FDA01A15778
S1131440B94F1196ED91FC9112970280F381E02D32
S11314501296FC93EE9311974E56594FE417F507E5
S113146029F442815381FD0152834183FC01EE0F33
S1131470FF1FEE0FFF1FEE0FFF1F8E0F9F1FFC01BC
S1131480E157F94F0180F281E02D86819781909395
S1131490B4068093B306209362060895CF93DF9336
S11314A0EB016091B3067091B406645F7F4F0E94B4
S11314B0480261E0CE010E940E07DF91CF910895AA
S11314C00F931F93CF93DF93DC011596ED91FC915D
S11314D01697C681D7818E01045F1F4FC8010E94F1
S11314E079028091570681111CC00A501109C80164
S11314F00E9479028E8990916206981710F4809365
S1131500620690E09C01220F331F220F331F220F2B
S1131510331F820F931FB8018157994F0E942702EE
S113152005C0B80180E796E00E942702E091B30667
S1131530F091B4069E898689891720F481E080930E
S11315405E0601C080E0DF91CF911F910F91089555
S113155020915D06FC01208320916306309164068E
S11315603283218308950FB6F8940F922091630675
S113157030916406DC0111964D915C911297E091D3
S11315805D06FC91FE1741F02417350728F0FB0196
S11315901182108281E015C0241B350BDB014D91B3
S11315A05C912417350748F4FB01421B530B51830C
S11315B040830E94A80A80E004C0FB0111821082CB
S11315C081E00F900FBE089581E080935E06089538
S11315D0EE0FFF1F0590F491E02D0994FB01DC014F
S11315E002C001900D9241505040D8F70895F894EC
S10515F0FFCF27
S11315F2DB05526561640073656E640049444C45C1
S10516020000E2
S9030000FC
