S017000052544F535F41737369676E6D656E742E737265634D
S11300000C9426010C9443010C9443010C94430179
S11300100C9443010C9443010C9443010C94860604
S11300200C9443010C9443010C9443010C9443013C
S11300300C9443010C9443010C9443010C9443012C
S11300400C9443010C9443010C9443010C9443011C
S11300500C9443011B0234024D0266027E027E02AE
S11300607E027E027E027E027E027E027E027E028C
S11300707E027E027E027E027E027E027E027E027C
S11300807E027E027E027E027E027E027E027E026C
S11300907E027E021B0234024D0266028B02A4021F
S11300A0BD02D602EE02EE02EE02EE02EE02EE0215
S11300B0EE02EE02EE02EE02EE02EE02EE02EE02BC
S11300C0EE02EE02EE02EE02EE02EE02EE02EE02AC
S11300D0EE02EE02EE02EE02EE02EE028B02A40249
S11300E0BD02D602FA0203030C0315031E031E030A
S11300F01E031E031E031E031E031E031E031E03F4
S11301001E031E031E031E031E031E031E031E03E3
S11301101E031E031E031E031E031E031E031E03D3
S11301201E031E03FA0203030C0315032B033203FD
S11301303903400346034603460346034603460386
S11301404603460346034603460346034603460363
S11301504603460346034603460346034603460353
S11301604603460346034603460346032B03320372
S11301703903400352035A0362036A037103710390
S113018071037103710371037103710371037103CB
S113019071037103710371037103710371037103BB
S11301A071037103710371037103710371037103AB
S11301B07103710352035A0362036A037D038703C5
S11301C091039B03A403A403A403A403A403A4030F
S11301D0A403A403A403A403A403A403A403A403E3
S11301E0A403A403A403A403A403A403A403A403D3
S11301F0A403A403A403A403A403A4037D03870307
S113020091039B03B003BA03C403CE03D703D703FC
S1130210D703D703D703D703D703D703D703D7030A
S1130220D703D703D703D703D703D703D703D703FA
S1130230D703D703D703D703D703D703D703D703EA
S1130240D703D703B003BA03C403CE0311241FBEDC
S1130250CFE5D8E0DEBFCDBF10E0A0E6B0E0E6EF2A
S1130260FAE102C005900D92A038B107D9F726E053
S1130270A0E8B0E001C01D92A53CB207E1F70E94DE
S1130280460D0C94790D0C94000061E083E60E9405
S1130290A50360E083E60E94720361E083E60E94A6
S11302A020030895DF92EF92FF920F931F93CF9351
S11302B0DF93D12C0F2EF0E6EF2EF0E0FF2EF02D81
S11302C0D0E061E083E60E94200340E06D2F83E6E6
S11302D00E947F028701C4E06C2F83E60E94EF0234
S11302E0811108C06C2F83E60E94EF02811102C0C5
S11302F0F801D080CF5F0F5F1F4FC73069F7DF5F12
S1130300F3E0EF0EF11CD430E1F6DD2099F28D2DEF
S1130310DF91CF911F910F91FF90EF90DF9008959F
S113032041E063E082E40E947F0285E08A95F1F770
S1130330000040E063E082E40E947F020895CF93CE
S1130340C82F40E061E082E40E947F0240E062E066
S113035082E40E947F026C2F81E40E9447030E9482
S113036090016C2F6295607F81E40E9447030E9494
S113037090018FE39CE90197F1F700C00000CF9151
S1130380089541E061E082E40E940F0241E062E0EE
S113039082E40E940F0241E063E082E40E940F02C3
S11303A061E081E40E9472038FE59AEE0197F1F710
S11303B000C0000083E30E949F0182E30E949F012A
S11303C088E20E949F018EE00E949F0181E00E94CA
S11303D09F0186E00E949F010895CF93C82F41E0BA
S11303E061E082E40E947F0240E062E082E40E94D5
S11303F07F026C2F81E40E9447030E9490016C2FBE
S11304006295607F81E40E9447030E9490018FE31C
S11304109CE90197F1F700C00000CF91089590E0A6
S1130420FC01E154F109E432F10508F067C0E65D2E
S1130430FF4F0C946A0D413059F42AB381E090E0E7
S113044002C0880F991F6A95E2F7822B8ABB089530
S11304502AB381E090E002C0880F991F6A95E2F701
S1130460809582238ABB0895413059F427B381E0F3
S113047090E002C0880F991F6A95E2F7822B87BB30
S1130480089527B381E090E002C0880F991F6A9510
S1130490E2F78095822387BB0895413059F424B351
S11304A081E090E002C0880F991F6A95E2F7822BE1
S11304B084BB089524B381E090E002C0880F991FA3
S11304C06A95E2F78095822384BB0895413059F4FC
S11304D021B381E090E002C0880F991F6A95E2F78A
S11304E0822B81BB089521B381E090E002C0880F84
S11304F0991F6A95E2F78095822381BB089590E065
S1130500FC01E154F109E432F10508F067C0E25B53
S1130510FF4F0C946A0D413059F42BB381E090E005
S113052002C0880F991F6A95E2F7822B8BBB08954E
S11305302BB381E090E002C0880F991F6A95E2F71F
S1130540809582238BBB0895413059F428B381E010
S113055090E002C0880F991F6A95E2F7822B88BB4E
S1130560089528B381E090E002C0880F991F6A952E
S1130570E2F78095822388BB0895413059F425B36E
S113058081E090E002C0880F991F6A95E2F7822B00
S113059085BB089525B381E090E002C0880F991FC0
S11305A06A95E2F78095822385BB0895413059F41A
S11305B022B381E090E002C0880F991F6A95E2F7A8
S11305C0822B82BB089522B381E090E002C0880FA1
S11305D0991F6A95E2F78095822382BB089590E083
S11305E0FC01E154F109E432F10540F5EE58FF4F06
S11305F00C946A0D89B390E002C0959587956A952D
S1130600E2F78170089586B390E002C095958795CE
S11306106A95E2F78170089583B390E002C09595DE
S113062087956A95E2F78170089580B390E002C0DF
S1130630959587956A95E2F7817008958FEF0895EF
S113064090E0FC01E154F109E432F105F8F4EA56D2
S1130650FF4F0C946A0D81E0611101C080E0819527
S11306608BBB089581E0611101C080E0819588BB56
S1130670089581E0611101C080E0819585BB0895F2
S113068081E0611101C080E0819582BB089590E012
S1130690FC01E154F109E432F10518F5E654FF4F89
S11306A00C946A0D8BB38F708BBB8BB3607F682BFC
S11306B06BBB089588B38F7088BB88B3607F682B49
S11306C068BB089585B38F7085BB85B3607F682B45
S11306D065BB089582B38F7082BB82B3607F682B41
S11306E062BB089590E0FC01E154F109E432F105A4
S11306F058F5E252FF4F0C946A0D611104C08AB39D
S11307008F708ABB08958AB3806F8ABB0895611184
S113071004C087B38F7087BB06C087B3806F87BB65
S113072006C0611104C084B38F7084BB089584B380
S1130730806F84BB0895611104C081B38F7081BB45
S1130740089581B3806F81BB089590E0FC01E1546A
S1130750F109E432F10558F5EE5FFE4F0C946A0D91
S1130760611104C08AB3807F8ABB08958AB38F6005
S11307708ABB0895611104C087B3807F87BB06C01C
S113078087B38F6087BB06C0611104C084B3807FC8
S113079084BB089584B38F6084BB0895611104C041
S11307A081B3807F81BB089581B38F6081BB08953D
S11307B00F931F93CF93DF93EC010E94B90A8091AA
S11307C0800081111DC0E5E8F0E08AE890E09183A3
S11307D0808313821282E1E8F0E08BED95E093834D
S11307E0828311821082A9E8B0E014969C938E93C0
S11307F013971296FC93EE93119781E080938000F7
S1130800209709F45FC09E012C5F3F4F2396CA3D99
S1130810D54008F05AC0E0918500F0918600A5E823
S1130820B0E002C0DF01FC0182819381821793074B
S113083020F4808191810097A9F7C0E0E138FC079A
S113084009F446C0CD91DC9111978E010C5F1F4FC6
S1130850808191818D939C9382819381821B930BE0
S11308608930910510F1BF01620F731FDB011396EC
S11308709C938E9312973383228312964D915C91AD
S1130880139785E890E001C0CD01EC01A881B981FE
S113089012962D913C91139724173507A8F3EB0179
S11308A0B983A883DC016D937C9380916C00909153
S11308B06D0022813381821B930B90936D00809392
S11308C06C0008C000E010E005C000E010E002C0C9
S11308D000E010E00E947E0BC801DF91CF911F91D0
S11308E00F9108950F931F93CF93DF93009741F1D6
S11308F0EC018C01045011090E94B90AF8014281EB
S11309005381A5E8B0E001C0DF01ED91FC9111979E
S11309102281338124173507B8F32497F983E883B8
S11309200D931C9320916C0030916D008A819B8102
S1130930820F931F90936D0080936C000E947E0B36
S1130940DF91CF911F910F910895FC01039692833B
S113095081832FEF3FEF34832383968385839087AE
S1130960878310820895FC01118610860895CF9321
S1130970DF939C01FB01DC011196CD91DC91129770
S1130980D383C2838C819D81958384838C819D8153
S1130990DC0113967C936E9312977D836C8331876D
S11309A02087F90180818F5F8083DF91CF91089543
S11309B0CF93DF93EB01488159814F3F2FEF5207CB
S11309C021F4FC01A781B0850DC0DC01139601C0A0
S11309D0DF011296ED91FC9113972081318142172A
S11309E05307B0F71296ED91FC911397FB83EA83BA
S11309F0D583C483BD83AC831396DC93CE931297C3
S1130A0099878887FC0120812F5F2083DF91CF9114
S1130A100895CF93DF93FC01A085B185C281D38172
S1130A20848195819D838C83C481D58182819381C6
S1130A309B838A8311968D919C911297E817F907ED
S1130A4031F48481958112969C938E93119711862B
S1130A5010868C9181508C938C91DF91CF91089565
S1130A6031E1FC013083319722E220833197A3E303
S1130A70A0833197608331977083319710823197C7
S1130A8060E8608331971082319762E06083319728
S1130A9063E06083319764E06083319765E060834D
S1130AA0319766E06083319767E06083319768E04F
S1130AB06083319769E06083319760E160833197A7
S1130AC03083319732E13083319733E1308331978A
S1130AD034E13083319735E13083319736E1308327
S1130AE0319737E13083319738E13083319739E1F9
S1130AF03083319730E23083319731E2308331975C
S1130B002083319723E220833197408331975083A8
S1130B10319726E22083319727E22083319728E218
S1130B202083319729E22083319720E32083319772
S1130B3021E32083869708951BBC89EF8ABD8BE04F
S1130B408EBD89B7806189BFA091C106B091C206EC
S1130B50CD91CDBFDD91DEBFFF91EF91DF91CF91BC
S1130B60BF91AF919F918F917F916F915F914F91C1
S1130B703F912F911F910F91FF90EF90DF90CF90B5
S1130B80BF90AF909F908F907F906F905F904F90A9
S1130B903F902F901F900F900FBE0F90089581E00B
S1130BA008950F920FB6F8940F921F9211242F926A
S1130BB03F924F925F926F927F928F929F92AF92E9
S1130BC0BF92CF92DF92EF92FF920F931F932F93D6
S1130BD03F934F935F936F937F938F939F93AF93C1
S1130BE0BF93CF93DF93EF93FF93A091C106B0918E
S1130BF0C2060DB60D920EB60D920E94150CA09170
S1130C00C106B091C206CD91CDBFDD91DEBFFF918B
S1130C10EF91DF91CF91BF91AF919F918F917F9190
S1130C206F915F914F913F912F911F910F91FF9081
S1130C30EF90DF90CF90BF90AF909F908F907F9078
S1130C406F905F904F903F902F901F900F900FBE2A
S1130C500F9008950F920FB6F8940F921F921124DB
S1130C602F923F924F925F926F927F928F929F92B8
S1130C70AF92BF92CF92DF92EF92FF920F931F93A6
S1130C802F933F934F935F936F937F938F939F9390
S1130C90AF93BF93CF93DF93EF93FF93A091C106DC
S1130CA0B091C2060DB60D920EB60D920E94BF0A07
S1130CB081110E94150CA091C106B091C206CD917C
S1130CC0CDBFDD91DEBFFF91EF91DF91CF91BF9159
S1130CD0AF919F918F917F916F915F914F913F91D0
S1130CE02F911F910F91FF90EF90DF90CF90BF90C5
S1130CF0AF909F908F907F906F905F904F903F90B8
S1130D002F901F900F900FBE0F9008950E942A06F7
S1130D1018950FB6F8940F92FC01928D0F900FBEA8
S1130D2081E0911180E008950F931F93CF93DF9397
S1130D30EC01042F1A8D4C8D4423B9F1011116C016
S1130D4050E08A819B810E94700D2C8D8A819B8149
S1130D50820F911D9B838A832C813D818217930787
S1130D6020F1888199819B838A831FC050E08E8102
S1130D709F810E94700D8C8D90E0919581959109D1
S1130D802E813F81280F391F3F832E83488159814B
S1130D902417350730F42C813D81820F931F9F83E4
S1130DA08E83023011F4111111501F5F1A8F80E0ED
S1130DB0DF91CF911F910F910895FC01448D44233D
S1130DC0A9F050E026813781240F351F378326830D
S1130DD0848195812817390720F080819181978338
S1130DE08683CB01668177810E94700D0895EF920E
S1130DF0FF920F931F93CF938C010FB6F8940F9229
S1130E00FC01C68D1C16ACF48189811106C011C089
S1130E10F8018189811105C00CC07801F1E1EF0E60
S1130E20F11CC7010E948D0C81110E94110DC1504B
S1130E3079F78FEFF801868F0F900FBE0FB6F894F5
S1130E400F92C58D1C16ACF48085811106C011C0AB
S1130E50F8018085811105C00CC07801F8E0EF0E1F
S1130E60F11CC7010E948D0C81110E94110DC1500B
S1130E7079F78FEFF801858F0F900FBECF911F91F7
S1130E800F91FF90EF900895CF93DF93EC010FB68D
S1130E90F8940F92E881F9818B8D2C8D90E030E0ED
S1130EA0829FA001839F500D929F500D11244E0FDD
S1130EB05F1F5D834C831A8EFB83EA830197829FB5
S1130EC0A001839F500D929F500D1124CF01840FD8
S1130ED0951F9F838E838FEF8D8F8E8F61110CC032
S1130EE08885882389F0CE0108960E948D0C88237A
S1130EF059F00E94D10508C0CE0108960E94A504AD
S1130F00CE0141960E94A5040F900FBE81E0DF91AF
S1130F10CF9108950F931F93CF93DF93082F162F2C
S1130F20869FC00111244F960E94D803EC010097BC
S1130F3071F0111103C09983888303C04F9699837C
S1130F4088830B8F1C8F61E0CE010E944407CE0181
S1130F50DF91CF911F910F9108959F92AF92BF920D
S1130F60CF92DF92EF92FF920F931F93CF93DF9371
S1130F7000D000D01F92CDB7DEB78C016B015D832A
S1130F804C83A22EB12C992493947C0188E0E80E22
S1130F90F11C0FB6F8940F92F801928D838D981777
S1130FA018F0F2E0AF1219C04A2DB601C8010E9430
S1130FB09406F8019189992349F0C80141960E9449
S1130FC08D0C882331F00E94D10503C081110E9449
S1130FD0D1050F900FBE81E050C08C819D81892B7B
S1130FE021F40F900FBE80E048C0B11005C0CE01BF
S1130FF001960E94D50CB92C0F900FBE0E94B90A1D
S11310000FB6F8940F92F801858D8F3F09F4158E71
S1131010F801868D8F3F09F4168E0F900FBEBE0126
S11310206C5F7F4FCE0101960E94E00C81111FC0BE
S11310300FB6F8940F92F801928D0F900FBE838D26
S113104098130FC06C817D81C7010E947B0CC8017D
S11310500E94F7060E947E0B81119BCF0E94D1054E
S113106098CFC8010E94F7060E947E0B92CFC80158
S11310700E94F7060E947E0B80E00F900F900F9065
S11310800F900F90DF91CF911F910F91FF90EF90F0
S1131090DF90CF90BF90AF909F9008959F92AF92B2
S11310A0BF92CF92DF92EF92FF920F931F93CF9351
S11310B0DF9300D000D01F92CDB7DEB78C015B0167
S11310C05D834C83E12C992493946C0181E1C80ED7
S11310D0D11C0FB6F8940F92F801F28CFF20A9F0FE
S11310E0B501C8010E94DD06FA94F801F28E8085EC
S11310F0882339F0C80108960E948D0C81110E9442
S1131100D1050F900FBE81E051C08C819D81892B48
S113111021F40F900FBE80E049C0E11005C0CE015C
S113112001960E94D50CE92C0F900FBE0E94B90ABB
S11311300FB6F8940F92F801858D8F3F09F4158E40
S1131140F801868D8F3F09F4168E0F900FBEBE01F5
S11311506C5F7F4FCE0101960E94E00C81111AC092
S1131160C8010E948906882379F06C817D81C601BB
S11311700E947B0CC8010E94F7060E947E0B81111D
S1131180A8CF0E94D105A5CFC8010E94F7060E94EE
S11311907E0B9FCFC8010E94F7060E947E0BC801F8
S11311A00E948906882309F494CF80E00F900F9061
S11311B00F900F900F90DF91CF911F910F91FF909F
S11311C0EF90DF90CF90BF90AF909F900895E09103
S11311D08906F0918A068081811107C08FEF9FEF05
S11311E090936906809368060895E0918906F091CA
S11311F08A060580F681E02D8081918190936906AD
S113120080936806089505E716E00F2EFDE9EF2E9A
S1131210F6E0FF2EF02D80917406882329F10FB695
S1131220F8940F92D8011596ED91FC911697C6810A
S1131230D781CE0102960E940905809173068150E0
S113124080937306809174068150809374060F9086
S11312500FBE8F89988D0E947204CE010E94720481
S1131260809174068111DBCFF7018081823098F27E
S11312700E94D105D0CF0F931F93CF93DF93EC013E
S113128000917106109172068091C1069091C20678
S113129002960E940905C00FD11FE091C106F0918A
S11312A0C206D383C283C017D10768F46091C10614
S11312B07091C20680918706909188066E5F7F4F79
S11312C00E94D80417C06091C1067091C206809133
S11312D0890690918A066E5F7F4F0E94D8048091A0
S11312E0680690916906C817D90720F4D093690657
S11312F0C0936806DF91CF911F910F9108954F928B
S11313005F926F927F928F929F92AF92BF92CF9291
S1131310DF92EF92FF920F93CF93DF934C016B0117
S11313205A012901CA010E94D8033C01892B09F4FE
S1131330E5C086E290E00E94D803EC01892B59F0C5
S1131340788E6F8A81E0A81AB108A60CB71CC11464
S1131350D10429F420C0C3010E947204CFC0D60175
S11313608C91898F8C918823A1F0AE01465E5F4FEA
S1131370F6013196B8E0CB0ED11CCF012191DA01F0
S11313802D93AD01DC018C91882319F0EC15FD053A
S1131390A1F718A201C0198E043008F003E00E8BE7
S11313A06E01B2E0CB0ED11CC6010E94B304CE0183
S11313B00C960E94B304D987C88784E090E0801B10
S11313C091099D878C87DB8BCA8B84E0FE01B196E3
S11313D0DF011D928A95E9F71DA2A201B401C5019E
S11313E00E94300599838883E114F10419F0F70110
S11313F0D183C0830FB6F8940F92809173068F5FE8
S1131400809373068091C1069091C206892BA9F539
S1131410D093C206C093C106809173068130E9F56A
S11314208DE996E00E94A50486EA96E00E94A50450
S11314308FEA96E00E94A50488EB96E00E94A5043A
S113144084E996E00E94A5048BE896E00E94A50436
S11314508EE796E00E94A50485E796E00E94A50425
S113146084E996E090938A06809389068BE896E057
S1131470909388068093870610C080916F0681112F
S11314800CC0E091C106F091C20696898E89891735
S113149020F0D093C206C093C10680916A068F5F84
S11314A080936A068E8990917006981710F4809341
S11314B0700690E09C01220F331F220F331F220F6E
S11314C0331F820F931FB6018356994F0E94B704AE
S11314D00F900FBE80916F06882361F0E091C106E2
S11314E0F091C20696898E89981730F40E94D1052E
S11314F081E005C081E003C081E001C08FEFDF918E
S1131500CF910F91FF90EF90DF90CF90BF90AF906D
S11315109F908F907F906F905F904F900895EF927F
S1131520FF920F930F2EF6E6EF2EF6E0FF2EF02D2E
S113153000E020E030E045E550E06EE670E083E056
S113154099E00E947F09813081F4F8948FEF9FEF36
S1131550909369068093680681E080936F061092E9
S11315607206109271060E949C050F91FF90EF90F5
S11315700895809165068F5F809365060895CF92E4
S1131580DF92EF92FF920F931F93CF93DF9380919B
S1131590650681119FC0E0907106F09072068FEF8E
S11315A0E81AF80AF0927206E0927106E114F10466
S11315B0B9F48091890690918A062091870630912A
S11315C0880630938A062093890690938806809330
S11315D0870680916B068F5F80936B060E94E708F5
S11315E08091680690916906E816F90610F4D12CEA
S11315F053C0D12CCC24C394E0918906F0918A067F
S11316008081811107C08FEF9FEF909369068093CB
S1131610680642C0E0918906F0918A060580F68149
S1131620E02DC681D7818A819B81E816F90628F4CA
S113163090936906809368062FC08E010E5F1F4F3A
S1131640C8010E9409058C899D89892B21F0CE014E
S11316500C960E9409058E8990917006981710F4D3
S11316608093700690E09C01220F331F220F331FDA
S1131670220F331F820F931FB8018356994F0E9484
S1131680B704E091C106F091C2069E898689981735
S113169008F4B2CFDC2CB0CFE091C106F091C206C1
S11316A0868990E0FC01EE0FFF1FEE0FFF1FEE0F87
S11316B0FF1F8E0F9F1FFC01E356F94F808182307C
S11316C010F0DD24D39480916C06882369F0DD2426
S11316D0D3940AC080916D0690916E060196909302
S11316E06E0680936D06D12C8D2DDF91CF911F91C5
S11316F00F91FF90EF90DF90CF900895DF92EF92DB
S1131700FF920F931F93CF93DF930FB6F8940F922A
S113171080916506815080936506809165068111EC
S113172063C080917306811133C061C0D7011596DF
S1131730ED91FC911697C681D781CE010C960E943B
S113174009058E010E5F1F4FC8010E9409058E898D
S113175090917006981710F48093700690E09C01A5
S1131760220F331F220F331F220F331F820F931FA9
S1131770B8018356994F0E94B704E091C106F091D5
S1131780C2069E898689981768F0D0926C060AC0B2
S1131790C0E0D0E00F2EFEE7EF2EF6E0FF2EF02D96
S11317A0DD24D394F70180818111C0CFCD2B11F0BA
S11317B00E94E708C0916D06D0916E06209761F0F3
S11317C011E00E94BF0A811110936C062197C9F79A
S11317D010926E0610926D0680916C06882331F08B
S11317E00E94D10581E003C080E001C080E00F9039
S11317F00FBEDF91CF911F910F91FF90EF90DF907B
S11318000895CF93DF93EC01892B51F00E94B90A1C
S113181060E0CE010E943B090E947E0B811102C050
S11318200E94D105DF91CF910895809165068823A8
S113183021F081E080936C06089510926C0620914B
S11318407006822F90E0FC01EE0FFF1FEE0FFF1FCA
S1131850EE0FFF1FE80FF91FE356F94F30813111E6
S113186011C02150822F90E0FC01EE0FFF1FEE0FFC
S1131870FF1FEE0FFF1FE80FF91FE356F94F3081EA
S1131880332379F3AC01440F551F440F551F440F04
S1131890551F480F591FDA01A356B94F1196ED9100
S11318A0FC9112970280F381E02D1296FC93EE9343
S11318B011974056594FE417F50729F44281538193
S11318C0FD0152834183FC01EE0FFF1FEE0FFF1F4A
S11318D0EE0FFF1F8E0F9F1FFC01E356F94F01808F
S11318E0F281E02D868197819093C2068093C10690
S11318F0209370060895CF93DF93EB016091C106A6
S11319007091C206645F7F4F0E94D80461E0CE01EB
S11319100E943B09DF91CF9108950F931F93CF93BA
S1131920DF93DC011596ED91FC911697C681D78162
S11319308E01045F1F4FC8010E940905809165064E
S113194081111CC00A501109C8010E9409058E8921
S113195090917006981710F48093700690E09C01A3
S1131960220F331F220F331F220F331F820F931FA7
S1131970B8018356994F0E94B70405C0B8018EE799
S113198096E00E94B704E091C106F091C2069E89D8
S11319908689891720F481E080936C0601C080E079
S11319A0DF91CF911F910F91089520916B06FC0157
S11319B02083209171063091720632832183089529
S11319C00FB6F8940F922091710630917206DC01E3
S11319D011964D915C911297E0916B06FC91FE1764
S11319E041F02417350728F0FB011182108281E0B1
S11319F015C0241B350BDB014D915C912417350771
S1131A0048F4FB01421B530B518340830E94D50CC5
S1131A1080E004C0FB011182108281E00F900FBEB0
S1131A20089581E080936C060895CF93DF931F920D
S1131A30CDB7DEB70E9445010E945201898320E0A0
S1131A404FEF5FEFBE016F5F7F4F8091C3069091B0
S1131A50C4060E94AD078AEF90E00E94010CECCF0F
S1131A60CF93DF931F92CDB7DEB70E94C1014FEF32
S1131A705FEFBE016F5F7F4F8091C3069091C406F4
S1131A800E944E0889810E94ED01F1CF40E061E09F
S1131A9081E00E948A079093C4068093C306E12CD8
S1131AA0F12C01E020E030E048EC50E063E770E026
S1131AB085E19DE00E947F0902E020E030E048ECEF
S1131AC050E068E770E080E39DE00E947F090E9497
S1131AD08F0AFFCFEE0FFF1F0590F491E02D0994BC
S1131AE0FB01DC0102C001900D9241505040D8F737
S1091AF00895F894FFCFF5
S1131AF63132333435363738392A3023DB05494415
S1131B064C450053656E64005265636569766500ED
S9030000FC
